:02000000802E50
:0100030000FC
:02000B0021587A
:0100130000EC
:01001B0000E4
:02002300216654
:100030001201AA1201CE12004F1201E712011F8015
:01004000F8C7
:1001520000003200003200003200003289993099EA
:10016200FDC2993230983FC0E0E5993098FDC298BF
:10017200B45631E5702430F5993099FDC2997599DC
:100182002E3099FDC299E5712430F5993099FDC25E
:1001920099E5722430F5993099FDC29975990D301F
:1001A20099FDC299D0E0003275B80075A8927589A0
:1001B2002175881075878075985075D000758C3CB4
:0C01C200758AB0758DE6758BE6D28E2232
:1001CE00C0E0E4F570F571F572C2A1C2A0C2A20042
:1001DE00D2A200C2A200D0E022C0E0C2A300D2A3ED
:1001EE0000C2A300D2A130A1FD7580FFD2A0758000
:1001FE00FFE580C2A0F57312020BD0E022C0E0E54D
:10020E007375F03384F570C5F075F00584F571C51E
:0A021E00F075F002A4F572D0E022A2
:10004100AEC8AFFADFFEDEFADDF622DDFE22C0E049
:10005100C2A77D01114175803811957D011141754E
:10006100800C11957D01114175800611957D01115D
:100071004175800111957D01114175800211957DB8
:100081000A114C75804F11A875804B11A87D641120
:100091004CD0E02211BFC2A6C2A57D0A114CD2A745
:1000A1007D0A114CC2A722C0E011BFD2A6C2A57D14
:1000B1000A114CD2A77D0A114CC2A7D0E022C0E0A0
:1000C100C2A7E5807580FFC2A6D2A57D0A114CD2D8
:1000D100A77D0A114C2087E8C2A7F580D0E022C095
:1000E100E07900E9936007F58011A80980F5D0E077
:1000F100224469676974616C566F6C746D657465CF
:100101007200202020564F4C543A0090011593F56F
:100111008011A822303132333435363738397D32C7
:10012100114C75808011959000F211E07D01114113
:100131007580C0119590010311E0E570310C758057
:100141002E11A8E571310CE572310C75805611A89C
:01015100228B
:00000001FF
